:020000040000FA
:020000001628C0
:08000800A300030EA400830114
:100010000B190B2811280B11A50AA60A3D308100E7
:100020001128240E8300A30E230E0900A501A601AA
:100030008316F030850006108610031788018901A9
:10004000031307308104D730810583123D308100CE
:100050000B118B168B1774205F3084008313AA0159
:10006000061830280108A900A801861838283A285F
:1000700027103C2827143C283F20512030280330EB
:10008000A90500302902031901340130290203199E
:1000900002340230290203190434033029020319FF
:1000A00008348000840AAA0A080003138312AB01F3
:1000B0005F30840008080F39003C0319602863286A
:1000C0002C1C5A280800AD006F20003C031D0800BE
:1000D000AB0A840A2B082A02031808005A28AD0824
:1000E0000002031D00342D34031383120F308500EA
:1000F0009320A0018501003020020319051401306E
:10010000200203198514023020020319051503305B
:100110002002031985159F20A00A04302002031D28
:100120007A28850108009F209F209F209F209F20E4
:100130000800F830A1000000A10B9B280800C8307F
:0A014000A2009920A20BA1280800DC
:02400E00F42F8D
:02401000FF3F70
:00000001FF
