:020000040000FA
:020000001528C1
:08000800A300030EA400830114
:100010000B190B2810280B11A50A3D308100102860
:1000200023088300A30EA30E09008316F030850079
:1000300003178801031307308104D7308105831229
:100040003D3081000B118B168B172720252883123A
:1000500003130F3085004620A001850100302002E7
:1000600003190514013020020319851402302002FF
:100070000319051503302002031985154620A00A2F
:1000800004302002031D2D28850108005220522033
:100090005220522052200800F930A1000000A10B8C
:1000A0004E280800C830A2004C20A20B542808009B
:02400E00F42F8D
:02401000FF3F70
:00000001FF
